:1000000078C092C082CB90C08FC08EC09ACB8CC07B
:100010008BC039C189C088C087C086C085C084C0F4
:1000200083C0000102030405060722756E72656332
:100030006F676E697A656420636F6D6D616E6400D1
:100040007265626F6F740065657772697465002010
:100050003A2000656572656164006F6666006F6EC8
:10006000006563686F006D616E75616C0061757429
:100070006F006461726B006D6F646500696400738A
:100080006574007D00204D616E75616C3A20002022
:100090004175746F3A2000204461726B3A20002051
:1000A0004D6F64653A20002049443A20007B00737C
:1000B000657474696E6773006F6666006F6E006CBE
:1000C00065647300737461747573000D0A001B5BC3
:1000D00044201B5B44000D1B5B4B000D0A00204DB0
:1000E00000204C0020430020410020420055000D1C
:1000F0000A0011241FBECFE5D2E0DEBFCDBF10E065
:10010000A0E6B0E0E8EBFDE102C005900D92A23858
:10011000B107D9F711E0A2E8B0E001C01D92A53700
:10012000B107E1F702D046CE6BCF2DE088E190E039
:100130000FB6F894A89581BD0FBE21BD20D0ECD399
:10014000D4D050D5EFD525D676D6A8D60BD4B1D6F7
:10015000FFD77FDA54DB1ED487D9ECDC789488D0C3
:100160002BD195D460D5F3D52BD68BD6F3D6FFD72C
:1001700041D932D4E3DC882391F76AD0F0CF1092D2
:10018000830010928200109286001092850080B742
:100190008C7F826080BF83B7887F836083BF84E366
:1001A00086BF89B7826089BF08958FB7F894209180
:1001B0008200309183008FBFC9010895FA014FB7C3
:1001C000F89420918200309183004FBF35832483BF
:1001D00060837183828393830895FC01108211826E
:1001E000128213820895FC01208131814281538162
:1001F000211531054105510539F18FB7F89460910A
:100200008200709183008FBF848195818617970744
:10021000E9F0DB01A81BB90BCD01A0E0B0E082172B
:100220009307A407B50760F4281B390B4A0B5B0B37
:1002300020833183428353837583648380E00895F0
:10024000108211821282138281E0089580E0089565
:1002500081E08093840029E288E190E00FB6F89471
:10026000A89581BD0FBE21BD089580918400089599
:1002700080918400882309F4A895089590938600BE
:100280008093850008951F920F920FB60F9211244C
:100290002F933F934F935F936F937F938F939F938E
:1002A000AF93BF93EF93FF9380918200909183006F
:1002B00001969093830080938200E0918500F091F5
:1002C0008600309709F00995FF91EF91BF91AF91AA
:1002D0009F918F917F916F915F914F913F912F915E
:1002E0000F900FBE0F901F90189586B1887F846085
:1002F00086B9379A1092870008958830F8F43AB397
:10030000A82FB0E081E090E00A2E02C0880F991F6C
:100310000A94E2F7282F209523232ABB21B1822BB0
:1003200081B9FD01EE5DFF4FE491AA0FBB1FA657F7
:10033000BF4F11964C931197E62BEC930895E82F3D
:10034000809187008823D1F4F0E0EE0FFF1FE6577D
:10035000FF4F91818081909389008093880087B9B5
:10036000992331F41C98369A81E080938700089590
:100370001C9A369A81E080938700089580E0089562
:10038000FC0180918700833011F080E00895349A59
:1003900080918900882341F484B195B19183808351
:1003A0001092870081E0089585B190E09183808369
:1003B0001092870081E0089580918700813071F06C
:1003C000813028F0823021F08330B9F041DF089588
:1003D000349BFDCF83E0809387000895349BF7CF53
:1003E0008091880087B980918900882339F01C9A10
:1003F000369A82E080938700089508951C98F8CF7C
:10040000DB012C9130E0220F331F1396ED91FC910C
:100410001497E20FF31F918380834C91242F30E0D7
:1004200012965C911297852F90E001972817390753
:1004300054F01C9211968C911197851718F48F5FC8
:1004400011968C9308954F5F4C93F4CFFC018181FA
:100450008823A1F08081882371F0815090E0880F7B
:10046000991F0380F481E02DE80FF91F0190F081BE
:10047000E02DCF01089582818150F0CFE0E0F0E0DF
:10048000CF0108955F926F927F928F929F92AF9269
:10049000BF92CF92DF92EF92FF920F931F93CF9371
:1004A000DF936C01562EBA01E90138018FEF9FEFFF
:1004B000DA018D939C9319821882F80111821082BF
:1004C000D60111968C911197882309F44FC0EC91B5
:1004D000EE2309F45BC04E2F4150852C99248114E2
:1004E000910409F457C0EE24FF24870120E030E096
:1004F000F601A380B48008C0F601428141502F5F0D
:100500003F4F2815390544F5E42FF0E0EE0FFF1FAB
:10051000EA0DFB1D0190F081E02DDB018D919C9196
:100520001197E817F90710F4ED93FC9388819981EE
:100530008E179F0710F4F983E883CF01A0E0B0E0A5
:10054000E80EF91E0A1F1B1F4423B1F241502F5F12
:100550003F4F28153905C4F2252D30E040E050E02A
:10056000C801B7012FDBD3012D933C93DF91CF91CD
:100570001F910F91FF90EF90DF90CF90BF90AF90C1
:100580009F908F907F906F905F90089512964C91FE
:100590004150A3CFEE24FF248701DECFFF920F93BB
:1005A0001F93DF93CF93CDB7DEB7E4970FB6F894E0
:1005B000DEBF0FBECDBFBC018E010F5D1F4FC80156
:1005C00043E150E088DB1CAAC80160E670E07FDBF5
:1005D0008C01009731F064EC70E04EDB892B69F4FC
:1005E00074D6E4960FB6F894DEBF0FBECDBFCF91A0
:1005F000DF911F910F91FF900895C8016FEB70E09C
:100600003BDB892B89F480E090E060E670E05FDB03
:100610008C01009709F487C06CEB70E02DDB892B0F
:1006200009F07BC06DD4DDCFC8016FEA70E024DB38
:10063000892B09F07CC0FE01709681E1DF011D92DB
:100640008A95E9F780E18983FC83EB831A82188A13
:100650008DEA90E08E010F5F1F4FB80116D9C801D7
:10066000A9D11A82EB81FC81108287EA90E0B8015F
:100670000CD981E090E033DA90E060E0A801C6D9BF
:10068000C80198D11A82EB81FC8110828FE990E039
:10069000B801FBD882E090E022DAB801D2D8C801D4
:1006A00089D11A82EB81FC81108287E990E0B80140
:1006B000ECD884E090E013DA90E060E0A801A6D9DD
:1006C000C80178D11A82EB81FC8110828FE890E01A
:1006D000B801DBD885E090E009DA60E0A80196D99E
:1006E000C80168D11A82EB81FC81108285E890E014
:1006F000B801CBD887E090E0F9D960E0A80186D9AD
:10070000C80158D11A82EB81FC81108283E890E005
:10071000B801BBD8C8014ED164CFC80168EB70E006
:10072000ABDA892BE1F18BE290E03DD15ACFC801E1
:100730006FE770E0A1DA892BD9F480E090E060E601
:1007400070E0C5DA8C01009771F36CE770E094DA21
:10075000892B09F059C080E090E060E670E0B7DADC
:10076000009709F36CDA682F81E090E0B0D939CFB7
:10077000C80161E670E080DA892BA1F480E090E0A6
:1007800060E670E0A4DA8C01009769F26EE570E033
:1007900073DA892B09F084C081E019D122CF84E17A
:1007A00094D31FCFC80163E570E066DA892B09F0A6
:1007B00046C080E090E060E670E089DA009709F4D6
:1007C00010CF3DDA8C018BD9F82EFE0135968BE0E7
:1007D000DF011D928A95E9F78AE089831A82FC83FA
:1007E000EB83C80160E08E010F5F1F4FA8010ED997
:1007F0008FE490E0B80149D88F2D90E060E0A80127
:1008000005D9C801D7D0EDCEC80167E770E034DA6A
:10081000892B91F580E090E060E670E058DAFC0109
:10082000009709F480CF6081603529F0623419F0B7
:10083000633509F078CF82E090E049D9D2CEC80183
:1008400067E470E019DA892BA9F580E090E060E6B2
:1008500070E03DDA009709F4C4CEF1D98C0180E054
:1008600090E060E670E033DA009709F4BACEE7D999
:10087000682FC8012CD9B5CEC80162E770E0FCD959
:10088000892B09F580E090E060E670E020DA0097BF
:1008900009F449CFD4D9682F84E090E018D9A1CECB
:1008A000C8016AE570E0E8D9892B09F03CCF80E007
:1008B0008ED097CEC80160E470E0DED9892B09F0B4
:1008C00032CFC6DC8ECEC8016DE670E0D5D9892B5B
:1008D00071F480E090E060E670E0F9D9009709F4E7
:1008E00022CFADD9BC0185E090E014D97ACEC80101
:1008F00066E670E0C1D9892B09F015CF80E090E061
:1009000060E670E0E4D9009709F40DCF98D9BC01F6
:1009100087E090E0FFD865CE80E090E0E0D88F3FA0
:1009200011F08111089581E090E060E0D0D882E07C
:1009300090E063E5CCD883E090E060E0C8D884E044
:1009400090E06FE0C4D885E090E06EE170E0E2D81E
:1009500087E090E068E671E0DDD880E090E061E05B
:10096000B6D80895B998C19A0895682F82E090E0AA
:10097000AED8089582E090E0B2D8089582E090E089
:10098000AED8833509F00895B19B02C082E4089582
:1009900080E5089510929C0008952ED608958BEC62
:1009A00090E02AD6089528D68BEC90E025D60895BD
:1009B0000ED60895FC018281938109D68BEC90E0DC
:1009C0001BD6089504D68BEC90E016D60895682FB8
:1009D00083E090E07CD80895CF93DF9393D6FC0119
:1009E0008FB7F8948FBF84819581892B19F4DF919B
:1009F000CF910895CF0193D5823189F18F37D1F00E
:100A00008D30C9F1ECE9F0E001900020E9F7319771
:100A1000EC59F040E431F10550F7EF01C456DF4FD7
:100A20008883198283E090E05AD8813001F7CE01A3
:100A3000CED5DDCFECE9F0E001900020E9F7319769
:100A4000EC59F040A1F2E556FF4F108283E090E0B0
:100A500046D8813061F68EEC90E0CED5C8CF83E0E9
:100A600090E03DD8813019F686ED90E0C5D58CE94F
:100A700090E0ADD5BCCF8BEC90E0BED58CE990E09A
:100A80008DDD10929C00B3CF8091B8000895FF9245
:100A90000F931F93DF93CF93CDB7DEB728970FB691
:100AA000F894DEBF0FBECDBFF090B70021E0F21684
:100AB00009F1F21678F082E0F81621F128960FB6C7
:100AC000F894DEBF0FBECDBFCF91DF911F910F9184
:100AD000FF90089589EB90E086DB882379F36FE03F
:100AE00070E080E090E049EB50E068DB81E08093CB
:100AF000B700E4CF80E023DC882301F382E0809319
:100B0000B700DCCFCE0101963BDC8823B9F28981A6
:100B10009A8164E670E074DC80916500833018F49B
:100B20001092B700CBCF84E690E063E0AE014D5F5A
:100B30005F4F9E012B5F3F4F8E01095F1F4FA2DC6D
:100B40008D819E8122E0823C920720F481E0809397
:100B5000B800E6CF23E08930920718F4F092B8008D
:100B6000DFCF8A54934020F483E08093B800D8CF3D
:100B700084E08093B800D4CF0F931F93DF93CF937B
:100B800000D000D000D0CDB7DEB71A821982809194
:100B90006500833068F084E690E063E0AE014D5F6D
:100BA0005F4F9E012B5F3F4F8E010F5F1F4F6ADC2F
:100BB00069817A8180E090E02AE930E040E050E00D
:100BC000C8D724E630E040E050E01ED8C9012696A0
:100BD0000FB6F894DEBF0FBECDBFCF91DF911F914E
:100BE0000F9108951092B7001092B80060E070E085
:100BF00080E090E049EB50E0E1DA1092640010925E
:100C0000650080E060E040E078DB089590E080914E
:100C10006A00853008F091E0892F089510926900EC
:100C200010926A0008958091C9008130C9F0813026
:100C300030F48AEC90E0D7DA8823D1F4089582303A
:100C4000E9F780ED90E09CDB8823C1F38091D00030
:100C50009091D10069E670E0D3DB1092C90008954D
:100C600083E06DDB882351F382E08093C90008950F
:100C70006FE070E080E090E04AEC50E09FDA81E0C5
:100C80008093C90008950F931F93DF93CF9300D0F3
:100C900000D000D0CDB7DEB71A82198280916A00E9
:100CA000853068F089E690E065E0AE014D5F5F4F0A
:100CB0009E012B5F3F4F8E010F5F1F4FE3DB69816A
:100CC0007A8180E090E024E630E040E050E041D7D7
:100CD000DC01CB012AE0B595A795979587952A95D4
:100CE000D1F726960FB6F894DEBF0FBECDBFCF91D9
:100CF000DF911F910F91089589E690E0A7DBA0E0B6
:100D0000B0E0BC01CD0124E630E040E050E021D766
:100D1000DC01CB013AE0B595A795979587953A9573
:100D2000D1F708951092C90060E070E080E090E093
:100D30004AEC50E043DA1092690010926A0083E0B6
:100D400060E040E0DADA08958091D200089584ED01
:100D500090E049DA882309F4089562E070E080E0C9
:100D600090E044ED50E02ADA8091D300880F809320
:100D7000D300CC9B03C081608093D300882329F0EB
:100D80008F3F51F71092D200089581E08093D200F6
:100D90000895D498DC9A60E070E080E090E044ED43
:100DA00050E00CDA8FEF8093D3001092D2000895B8
:100DB0009093DC008093DB0008958091DA00089521
:100DC00081EE90E010DA8823A9F48091DD00909103
:100DD000DE0001969093DE008093DD00CF9909C07C
:100DE0008091DF009091E00001969093E000809365
:100DF000DF00089564E170E080E090E041EE50E0B3
:100E0000DDD98091DD009091DE00089758F01092B6
:100E1000DA008091DF009091E000029718F081E005
:100E20008093DA001092DE001092DD001092E00054
:100E30001092DF0008951092DA001092DE001092F6
:100E4000DD001092E0001092DF001092DC001092A2
:100E5000DB00D798DF9A64E170E080E090E041EE3B
:100E600050E0ACD908958091E700813011F080E026
:100E7000089586B390E096958795969587958170AD
:100E800008958091E700882341F488EE90E0ABD983
:100E9000882319F081E08093E7000895BA9868E705
:100EA00079E680E090E048EE50E088D91092E700C3
:100EB00008951092EE001092EF001092F000109240
:100EC000F10008958091EE000895882341F482EFA7
:100ED00090E083D980E045D11092EE000895682F0C
:100EE00070E080E090E02CE231E040E050E031D66C
:100EF00042EF50E063D980E034D11092EE000895C3
:100F000087E090E0F3D5A0E0B0E0BC01CD0120E5A2
:100F100036E440E050E01DD642EF50E04FD981E08A
:100F200020D181E08093EE00089585E090E0DED549
:100F3000A0E0B0E0BC01CD0120E536E440E050E0A7
:100F400008D642EF50E03AD981E00BD183E080939C
:100F5000EE0008950F931F93F7DE982F882329F052
:100F60008091EF00882309F47DC0992309F451C0D2
:100F700000E09093EF0021DF982F882329F08091E3
:100F8000F000882309F46CC0992319F110E09093C4
:100F9000F0008091EE00823039F1833008F440C0D7
:100FA000843009F47CC0843008F063C0013009F457
:100FB0008EC0113009F4A2C056DF882309F08EC01C
:100FC00082EF90E010D9882309F450C080E07DDFE3
:100FD0004DC08091F0008823C9F212E09093F00098
:100FE0008091EE008230C9F688EF90E0FCD888232B
:100FF000E9F182DE2091F10090E0422F50E0269549
:101000002695421B51098417950744F11092EE0072
:101010002DC08091EF00882309F4AACF02E0A9CF68
:10102000882311F5013009F48BC0123009F47AC01D
:10103000C4DE882309F04EC0E9DD8823B9F023DE41
:10104000182F84E090E04BD5811780F00CDF8823C7
:1010500069F082EF90E0C7D8882341F066DF06C0D0
:1010600011E095CF01E085CF813071F11F910F9193
:1010700008958530D9F788EF90E0B5D88823B1F38B
:101080003BDE2091F10090E0422F50E0269526951E
:10109000420F511D481759070CF498CFDFCF88EF46
:1010A00090E0A1D8882311F327DE2091F10090E091
:1010B000422F50E026952695421B5109841795072B
:1010C0000CF084CF32DFD2CF013009F079CF84E148
:1010D000FCDECCCF53DC803549F6AECF85E090E026
:1010E00005D5A0E0B0E0BC01CD0120E536E440E04C
:1010F00050E02FD542EF50E061D8B8CFC4DD8093E7
:10110000F1008CDD65E270E080E090E048EF50E0B7
:1011100055D82AD08230B0F080E023D084E080938C
:10112000EE00A4CFB0DD8093F10078DD65E270E0E1
:1011300080E090E048EF50E041D81093EE0096CF69
:10114000DFDE94CF80E00DD085E08093EE008ECF7F
:101150001092FF001092FE00D19AD29AD998DA9894
:1011600008958093FF0008958091FE000895809176
:10117000FF00882311F19091FE00992329F08091BE
:101180000001981709F461C09093000110920201C8
:10119000109201016FE070E080E090E043E051E0E8
:1011A0000DD88091FE00823009F43FC0833050F0AA
:1011B000833011F18430A1F00895D998DA98109213
:1011C000FE000895882309F18130B1F7F6DD882308
:1011D00009F463C0DA9AD99884E08093FE000895F8
:1011E000ECDD882309F45FC0809101019091020138
:1011F000059710F3D9980895E0DD882309F441C0DC
:10120000DA9A84E08093FE000895D7DD882311F7F1
:101210003BDC882389F238DC823008F44CC0D99A50
:10122000DA9883E08093FE00089580910101909107
:101230000201883C910508F4BFCFAAD1882309F4A4
:10124000BBCF81E08093FE00089583E091E0CBD78F
:10125000882309F4A6CF6FE070E080E090E043E0DF
:1012600051E0ACD780910101909102012FEF8F3FA7
:10127000920709F496CF01969093020180930101A1
:1012800090CF02DC8230E8F0809101019091020160
:10129000059708F491CFDA980895F6DB833008F0CB
:1012A000BECFD998F8CFF0DB823028F0D99A83E00E
:1012B0008093FE000895D998DA9881E08093FE002B
:1012C000089582E08093FE0008950F931F93DF93AB
:1012D000CF93CDB7DEB7A3970FB6F894DEBF0FBE9E
:1012E000CDBFFE0135968FE1DF011D928A95E9F7AA
:1012F0008EE189831A82FC83EB838DEE90E08E0170
:101300000F5F1F4FB801C1D22FDF823009F46CC0CC
:10131000833008F450C0833009F464C0843009F489
:1013200053C080E2B8018DD28AEE90E0B801ADD210
:1013300023DC62E0A8016AD387EE90E0B801A5D271
:101340003CDD90E060E0A80161D384EE90E0B8015C
:101350009CD214DBB80175D2B5DD823009F448C0E7
:101360008330A0F58823D1F580E3B8016AD281EEFD
:1013700090E0B8018AD2C0DC90E060E0A80146D3DA
:101380008EED90E0B80181D26EDD90E060E0A801C2
:101390003DD38BED90E0B80178D28B819C8117D141
:1013A000A3960FB6F894DEBF0FBECDBFCF91DF91ED
:1013B0001F910F910895882329F0813009F0B1CF52
:1013C00085E5B0CF89E4AECF81E4ACCF833071F056
:1013D000863010F080E2C9CF8EE6C7CF8130D1F7DA
:1013E0008DE4C3CF82E49ECF87E59CCF81E4BDCF5F
:1013F00086E6BBCF1F9389E091E0F5D68823E9F418
:1014000020910F01222331F1822F66E0BBD3182FE8
:1014100080911101181738F4822FB4D3992319F44D
:10142000C09A1F910895C9DC882319F4C0981F91B0
:1014300008951A30D9F7C09AF4CF6FE070E080E0D9
:1014400090E049E051E0BAD680910F018F3940F029
:1014500010920F0119DB8093110120910F01D4CF5D
:101460008F5F80930F01CCCFB89A6FE070E080E07F
:1014700090E049E051E0A2D610920F0110921001C5
:10148000109211017ED00895FC018FB7F89411825B
:10149000108213821282158214828FBF0895482F02
:1014A000DB015FB7F89414962D913C911597169631
:1014B0008D919C9117972817390770F51896ED9123
:1014C000FC91199712968D919C911397E80FF91F33
:1014D000408312962D913C91139716968D919C9175
:1014E000179701972817390780F013961C921E92C0
:1014F000129714968D919C911597019615969C9331
:101500008E93149781E05FBF08952F5F3F4F13962E
:101510003C932E931297EDCF80E05FBF0895DC01DE
:101520006FB7F89414964D915C911597411551053C
:1015300021F12D913C9111971896ED91FC911997FD
:10154000E20FF31FE08116968D919C9117970197FA
:101550002817390760F011961C921E924150504096
:1015600015965C934E9314976FBF8E2F08952F5F3F
:101570003F4F11963C932E93F1CFE0E06FBF8E2F3B
:10158000089581E0809359010895109259010895BA
:1015900080915801882319F020E0822F08958FB799
:1015A000F8948FBF20E08091720090917300892B96
:1015B000A1F721E0822F0895982F80915901882367
:1015C00009F40895892F6EE670E069DF0895CF93DE
:1015D000DF93FC0180915901882359F08081882391
:1015E00041F0EF016EE670E05ADF89812196882391
:1015F000C9F7DF91CF910895CF93DF93EC018091EC
:101600005901882311F480E017C0CE0148D32FB7C9
:10161000F8942FBF209174003091750040917200B2
:1016200050917300241B350B2817390760F3FE0116
:101630008491882321F481E0DF91CF910895219650
:101640006EE670E02CDFFE0184912196882399F3E9
:10165000F7CFD69A1092590110925B0110925A015D
:101660001092580186E39BE009D6089580915801B5
:10167000813091F0813050F48FB7F8948FBF809112
:10168000720090917300892BC9F408958230E9F7B4
:10169000DE9A10925801089590915C0190FD0CC063
:1016A000DE9880915D018830A9F08F5F80935D01A5
:1016B000969590935C010895DE9AF3CFDE988EE6BE
:1016C00090E02DDF80935C0181E080935D01809349
:1016D0005801089582E080935801089580916E0129
:1016E000882331F410926F01959A81E080936E0106
:1016F000089580916E01882321F061989598109249
:101700006E01089588E790E008951F920F920FB63A
:101710000F9211248F939F93CD990CC0599A619A7F
:101720001DBC1CBC8AE190E09BBD8ABD959881E000
:1017300080936F019F918F910F900FBE0F901F901C
:1017400018951F920F920FB60F9211242F933F936B
:101750004F935F936F937F938F939F93AF93BF93B9
:10176000EF93FF9380916F01823051F1833009F143
:10177000813089F0FF91EF91BF91AF919F918F914F
:101780007F916F915F914F913F912F910F900FBE7D
:101790000F901F901895CD9925C0109270018093DD
:1017A000710184E390E09BBD8ABD82E080936F016C
:1017B000E1CFCD991AC0619810926F01959ADACF56
:1017C000CD9908C0909171019038A9F0990F90932C
:1017D0007101D0CF8091700190917101892B80931C
:1017E0007001F2CF6198959AC5CF8091700168E73A
:1017F00070E055DEE0CF83E080936F01BBCFD598DA
:10180000DD9A8FB58C7F8FBD8EB5877E88608EBD4B
:101810008EB5887F83608EBD84E390E09BBD8ABDDA
:101820001DBC1CBC599A8BB780618BBF80916E0127
:10183000882331F410926F01959A81E080936E01B4
:101840000895282FDB0111969C9111978C91981780
:1018500070F41296ED91FC911397E90FF11D20831E
:10186000118211968C9111978F5F11968C93089528
:10187000982FFB018181981738F491830280F381BE
:10188000E02DE90FF11D10820895EF92FF921F9352
:10189000CF93DF937C01EB0102D229811881121BC7
:1018A000811708F4182F8A819B81820F911DB7013F
:1018B000412F50E0FDD18981810F8983EA81FB812D
:1018C000E80FF11D1082DF91CF911F91FF90EF90F3
:1018D00008951F93CF93DF93382F492FEB01E82F03
:1018E000F92FDF010D900020E9F71197AE1BBF0B18
:1018F00029811881121BA11708F41A2F8A819B8154
:10190000820F911D632F742F412F50E0E4D1898104
:10191000810F8983EA81FB81E80FF11D1082DF913D
:10192000CF911F9108951F93CF93DF93EC018FEE1A
:1019300090E0B5D129811881121B811708F4182F66
:101940008A819B81820F911D6FEE70E0412F50E0E4
:10195000AFD18981810F8983EA81FB81E80FF11D75
:101960001082DF91CF911F9108951F93CF93DF9342
:10197000FC01EB0162817381FB01DF010D9000200E
:10198000E9F71197AE1BBF0B29811881121BA11714
:1019900008F41A2F8A819B81820F911D412F50E0FC
:1019A0009AD18981810F8983EA81FB81E80FF11D3A
:1019B0001082DF91CF911F9108950F931F93CF93C2
:1019C000DF93EC018B01DB0111961C9211971296AB
:1019D000ED91FC91139710828881882329F410C01F
:1019E00021968881882361F08232D1F702C0B80144
:1019F00028DF21968881882319F08232C1F7219649
:101A0000CE01DF91CF911F910F910895BF92CF9298
:101A1000DF92EF92FF920F931F93DF93CF93CDB797
:101A2000DEB760970FB6F894DEBF0FBECDBF8C0156
:101A3000B62E7A0197FD43C09C018B2D90E06E017C
:101A40000894C11CD11CF601E80FF91F1082009701
:101A500099F0FC013197EC0DFD1DC9016AE070E0C1
:101A60009DD0805D8083C9016AE070E097D09B01C2
:101A70003197EC17FD0789F78E01075F1F4FC901EA
:101A8000B8014AE050E05DD1C801B70122DFBB20B8
:101A900031F08EE2B701D5DEC601B7011ADF6096DC
:101AA0000FB6F894DEBF0FBECDBFCF91DF911F916F
:101AB0000F91FF90EF90DF90CF90BF9008958DE24F
:101AC000BA01BFDE22273327201B310BB6CFE199A5
:101AD000FECF9FBB8EBB6DBBE29AE19A0895E19960
:101AE000FECF9FBB8EBBE09A8DB30895E199FECFE8
:101AF0009FBB8EBBE09A2DB3E199FECF01969FBBB1
:101B00008EBBE09A4DB330E0942F80E0282B392B28
:101B1000C9010895E199FECF9FBB8EBB6DBBE29AD0
:101B2000E19AE199FECF01969FBB8EBB7DBBE29A05
:101B3000E19A08958AEA8093720108958091720172
:101B40008A3A29F08AEA8093720180E0089581E060
:101B50000895FF27EE27BB27AA2760FF04C0A20F26
:101B6000B31FE41FF51F220F331F441F551F969507
:101B700087957795679589F70097760771F7CF0175
:101B8000BD010895991B79E004C0991F961708F0CC
:101B9000961B881F7A95C9F780950895AA1BBB1BD1
:101BA00051E107C0AA1FBB1FA617B70710F0A61B5D
:101BB000B70B881F991F5A95A9F780959095BC017E
:101BC000CD010895A1E21A2EAA1BBB1BFD010DC079
:101BD000AA1FBB1FEE1FFF1FA217B307E407F507DD
:101BE00020F0A21BB30BE40BF50B661F771F881FB9
:101BF000991F1A9469F760957095809590959B014F
:101C0000AC01BD01CF01089597FB092E05260ED02A
:101C100057FD04D0D7DF0AD0001C38F4509540950A
:101C2000309521953F4F4F4F5F4F0895F6F79095B0
:101C30008095709561957F4F8F4F9F4F0895FC0160
:101C400088279927E89421912032E9F3293010F070
:101C50002E30C8F32B3239F02D3231F4689403C0A2
:101C60008FD0820F911D219120532A30C8F31EF48A
:101C7000909581959F4F0895FB01DC018D918134F2
:101C80001CF08B350CF4805E659161341CF06B3573
:101C90000CF4605E861B611189F3990B0895FC01B9
:101CA00005900020E9F7809590958E0F9F1F08956D
:101CB000FB01DC014150504048F005900D9200209E
:101CC000C9F701C01D9241505040E0F7089543E725
:101CD00051E010D00895FB01DC014150504048F024
:101CE00001900D920020C9F701C01D924150504053
:101CF000E0F70895FA01A191B081009719F41097C7
:101D0000E1F0CD01DC01CD010D90002011F4C00106
:101D100013C0FB012191222319F02015D9F7F3CF2D
:101D2000FB012191201519F41E92119606C0222361
:101D3000C1F70D900020A1F7D001FA01A193B08363
:101D40000895FB019F01E8944230BCF04532ACF4A9
:101D50004A3029F497FB1EF4909581959F4F642F8C
:101D600077271CDF805D8A330CF0895D8193CB017E
:101D70000097A9F716F45DE251931082C9010AC0D9
:101D8000BC01880F991F880F991F860F971F880F16
:101D9000991F0895DC01FC01672F71917723E1F70A
:101DA000329704C07C916D9370836291AE17BF0728
:081DB000C8F30895F894FFCF79
:101DB800200A0D00000003B100000005BF0000006C
:101DC80000000000460012010000000000001000A2
:021DD8005E01AA
:00000001FF
