:1000000095C0AFC085CCADC0ACC0ABC09DCCA9C0C5
:10001000A8C058C1A6C0A5C0A4C0A3C0A2C0A1C00A
:10002000A0C000010203040506072256322E30004C
:10003000756E7265636F676E697A656420636F6D54
:100040006D616E64007265626F6F740065657772D2
:1000500069746500203A2000656572656164007608
:100060006572006F6666006F6E006563686F00748E
:1000700043616C4F66667365743A20007443616C2B
:100080004F666673657400676574007443616C4FF6
:100090006666736574006D616E75616C0061757480
:1000A0006F006461726B006D6F646500696400735A
:1000B0006574007D002C224D616E75616C223A00E2
:1000C0002C224175746F223A00222C224461726BFB
:1000D000223A002C224D6F6465223A2200224944C4
:1000E000223A007B0073657474696E6773006F66F3
:1000F00066006F6E006C6564730073746174757371
:10010000000D0A001B5B44201B5B44000D1B5B4B76
:10011000000D0A00205400204D00204C0020430018
:1001200020410020420055000D0A000011241FBE8E
:10013000CFE5D2E0DEBFCDBF10E0A0E6B0E0EEEB51
:10014000FFE102C005900D92A838B107D9F711E080
:10015000A8E8B0E001C01D92AA39B107E1F702D0CA
:100160002CCF4ECF2DE088E190E00FB6F894A89503
:1001700081BD0FBE21BD22D039D4D6D0A7D546D659
:100180007CD6CDD6FFD67ED75CD48ED7DBD864DBC9
:1001900039DC6FD46CDAD1DD789489D02ED1EBD4F0
:1001A000B6D549D681D6E1D600D7CFD7DAD825DA69
:1001B00087D4C7DD882389F76AD0EFCF10928900F2
:1001C0001092880010928C0010928B0080B78C7F68
:1001D000826080BF83B7887F836083BF84E386BFEC
:1001E00089B7826089BF08958FB7F89420918800FD
:1001F000309189008FBFC9010895FA014FB7F89473
:1002000020918800309189004FBF3583248360831B
:100210007183828393830895FC011082118212827C
:1002200013820895FC01208131814281538121157F
:1002300031054105510539F18FB7F8946091880077
:10024000709189008FBF8481958186179707E9F0A7
:10025000DB01A81BB90BCD01A0E0B0E0821793072A
:10026000A407B50760F4281B390B4A0B5B0B2083EE
:100270003183428353837583648380E008951082C1
:1002800011821282138281E0089580E0089581E056
:1002900080938A0029E288E190E00FB6F894A8954F
:1002A00081BD0FBE21BD089580918A00089580917F
:1002B0008A00882309F4A895089590938C00809370
:1002C0008B0008951F920F920FB60F9211242F9357
:1002D0003F934F935F936F937F938F939F93AF93CE
:1002E000BF93EF93FF9380918800909189000196CE
:1002F0009093890080938800E0918B00F0918C00AE
:10030000309709F00995FF91EF91BF91AF919F91BF
:100310008F917F916F915F914F913F912F910F90AE
:100320000FBE0F901F90189586B1887F846086B9A4
:10033000379A10928D0008958830F8F43AB3A82FB8
:10034000B0E081E090E00A2E02C0880F991F0A9465
:10035000E2F7282F209523232ABB21B1822B81B9D4
:10036000FD01EE5DFF4F8491FD01EE0FFF1FE05791
:10037000FF4F4183862B80830895A82FB0E0F0CFF4
:10038000E82F80918D008823D1F4F0E0EE0FFF1F5D
:10039000E057FF4F9181808190938F0080938E0072
:1003A00087B9992331F41C98369A81E080938D00A7
:1003B00008951C9A369A81E080938D00089580E01C
:1003C0000895FC0180918D00833011F080E0089544
:1003D000349A80918F00882341F484B195B1918340
:1003E000808310928D0081E0089585B190E0918323
:1003F000808310928D0081E0089580918D0081307E
:1004000071F0813028F0823021F08330B9F03FDF85
:100410000895349BFDCF83E080938D000895349B35
:10042000F7CF80918E0087B980918F00882339F0B3
:100430001C9A369A82E080938D00089508951C9846
:10044000F8CFDB012C9130E0220F331F1396ED9192
:10045000FC911497E20FF31F918380834C91242F1A
:1004600030E012965C911297852F90E00197281743
:10047000390754F01C9211968C911197851718F436
:100480008F5F11968C9308954F5F4C93F4CFFC01CE
:1004900081818823A1F08081882371F0815090E0D0
:1004A000880F991F0380F481E02DE80FF91F019058
:1004B000F081E02DCF01089582818150F0CFE0E0FE
:1004C000F0E0CF0108955F926F927F928F929F929A
:1004D000AF92BF92CF92DF92EF92FF920F931F9352
:1004E000CF93DF936C01562EBA01E90138018FEFEB
:1004F0009FEFDA018D939C9319821882F801118283
:100500001082D60111968C911197882309F44FC05F
:10051000EC91EE2309F45BC04E2F4150852C9924B9
:100520008114910409F457C0EE24FF24870120E0D0
:1005300030E0F601A380B48008C0F601428141504A
:100540002F5F3F4F2815390544F5E42FF0E0EE0FFB
:10055000FF1FEA0DFB1D0190F081E02DDB018D9165
:100560009C911197E817F90710F4ED93FC9388819B
:1005700099818E179F0710F4F983E883CF01A0E0DB
:10058000B0E0E80EF91E0A1F1B1F4423B1F24150D0
:100590002F5F3F4F28153905C4F2252D30E040E08C
:1005A00050E0C801B70111DCD3012D933C93DF91DA
:1005B000CF911F910F91FF90EF90DF90CF90BF9060
:1005C000AF909F908F907F906F905F90089512965C
:1005D0004C914150A3CFEE24FF248701DECFFF9240
:1005E0000F931F93DF93CF93CDB7DEB7E4970FB68A
:1005F000F894DEBF0FBECDBFBC018E010F5D1F4F53
:10060000C80143E150E06ADC1CAAC80160E670E062
:1006100061DC8C01009731F06AEF70E030DC892BEF
:1006200069F44DD7E4960FB6F894DEBF0FBECDBF88
:10063000CF91DF911F910F91FF900895C80165EF51
:1006400070E01DDC892B89F480E090E060E670E0CA
:1006500041DC8C01009709F484C062EF70E00FDC8C
:10066000892B09F077C047D5DDCFC80165EE70E072
:1006700006DC892B09F079C0FE01709681E1DF016B
:100680001D928A95E9F780E189831A82FC83EB83C6
:1006900083EE90E0F1D11A82EB81FC8110828DED26
:1006A00090E08E010F5F1F4FB801F2D981E090E01A
:1006B00019DB90E060E0A801ACDAC801F2D11A823F
:1006C000EB81FC81108283ED90E0B801E1D982E0FA
:1006D00090E008DBB801B8D9C801E3D11A82EB81F8
:1006E000FC81108289EC90E0B801D2D984E090E0DE
:1006F000F9DA90E060E0A8018CDAC801D2D11A8260
:10070000EB81FC81108280EC90E0B801C1D985E0DA
:1007100090E0EFDA60E0A8017CDAC801C2D11A8269
:10072000EB81FC81108285EB90E0B801B1D987E0C4
:1007300090E0DFDA60E0A8016CDAC801B2D11A8279
:10074000EB81FC81108283EB90E0B801A1D9C80154
:10075000A0D168CFC8016EEE70E091DB892B09F45F
:1007600056C080E390E08ED15DCFC8016FEA70E0A3
:1007700086DB892B81F1C80167E870E080DB892B7B
:1007800009F048C080E090E060E670E0A3DB0097ED
:1007900041F36CE770E073DB892B19F7FE0170966B
:1007A00081E1DF011D928A95E9F780E18983FC836D
:1007B000EB831A82188A8FE690E08E010F5F1F4F3D
:1007C000B80166D989E090E094DA60E0A80121DA06
:1007D000C8015FD127CF80E090E060E670E07ADB6F
:1007E0008C01009709F4BDCF6CEA70E048DB892BDF
:1007F00049F580E090E060E670E06CDB009709F47A
:10080000B0CF20DB682F81E090E064DA0BCF84E189
:1008100057D408CFC8016AE670E031DB892B69F54F
:1008200080E090E060E670E055DB8C01009709F411
:1008300098CF67E670E023DB892B09F06AC081E07E
:100840003AD1F0CEC80167EA70E019DB892BF9F4E0
:1008500080E090E060E670E03DDBFC01009709F489
:1008600080CF6081603529F0623419F0633509F07A
:1008700078CF82E090E02EDAD5CEC8016FE570E047
:10088000FEDA892BC9F48BE290E0FCD0CBCEC80114
:1008900062EA70E0F4DA892B09F045C080E090E06C
:1008A00060E670E017DB009709F45BCFCBDA682FC6
:1008B00084E090E00FDAB6CEC80168E570E0DFDAD8
:1008C000892B09F044C080E090E060E670E002DB34
:1008D000009709F4A7CEB6DA8C0104DAF82EFE01EF
:1008E00035968BE0DF011D928A95E9F78AE08983CE
:1008F0001A82FC83EB83C80160E08E010F5F1F4FFB
:10090000A80187D984E590E0B801C2D88F2D90E086
:100910005CCFC80163E670E0B2DA892B09F021CF21
:1009200080E0C9D07FCEC8016DE970E0A8DA892BDC
:1009300059F580E090E060E670E0CCDA009709F4C9
:1009400010CF80DABC0185E090E0E7D96BCEC8011A
:100950006CE470E094DA892B59F580E090E060E671
:1009600070E0B8DA009709F45DCE6CDA8C0180E0B3
:1009700090E060E670E0AEDA009709F453CE62DAF8
:10098000682FC801A7D94ECEC80166E970E077DAB2
:10099000892BB9F480E090E060E670E09BDA009784
:1009A00009F4DFCE4FDABC0187E090E0B6D93ACE49
:1009B000C80165E470E063DA892B09F0D2CE67DC08
:1009C00031CEC8016BE870E05ADA892B09F0C9CE44
:1009D00080E090E060E670E07DDA009709F4C1CE37
:1009E00031DABC0189E090E098D91CCE80E090E03B
:1009F00079D98F3F11F08111089581E090E060E096
:100A000069D982E090E063E565D983E090E060E039
:100A100061D984E090E06FE05DD985E090E06EE11F
:100A200070E07BD987E090E068E671E076D989E0F4
:100A300090E066EF7EEF71D980E090E061E04AD906
:100A40000895B998C19A0895682F82E090E042D93C
:100A5000089582E090E046D9089582E090E042D97E
:100A6000833509F00895B19B02C082E4089580E5C2
:100A700008951092A2000895C2D6089581E091E0F1
:100A8000BED60895BCD681E091E0B9D60895A2D62D
:100A90000895FC01828193819DD681E091E0AFD6DB
:100AA0000895FC018281938195D6089593D681E0C3
:100AB00091E0A5D60895682F83E090E00BD90895C2
:100AC000CF93DF9322D7FC018FB7F8948FBF848137
:100AD0009581892B19F4DF91CF910895CF0122D60A
:100AE000823189F18F37D1F08D30C9F1E2EAF0E03F
:100AF00001900020E9F73197E25AF040E831F10522
:100B000050F7EF01CE55DF4F8883198283E090E0E4
:100B1000E9D8813001F7CE015DD6DDCFE2EAF0E021
:100B200001900020E9F73197E25AF040A1F2EF5529
:100B3000FF4F108283E090E0D5D8813061F684E0E9
:100B400091E05DD6C8CF83E090E0CCD8813019F633
:100B50008CE091E054D682EA90E03CD6BCCF81E0B4
:100B600091E04DD682EA90E03ADD1092A200B3CF38
:100B70008091C2000895FF920F931F93DF93CF934C
:100B8000CDB7DEB728970FB6F894DEBF0FBECDBF46
:100B9000F090C10021E0F21609F1F21678F082E03F
:100BA000F81621F128960FB6F894DEBF0FBECDBF20
:100BB000CF91DF911F910F91FF90089583EC90E00A
:100BC00031DB882379F36FE070E080E090E043EC64
:100BD00050E013DB81E08093C100E4CF80E0D0DB04
:100BE000882301F382E08093C100DCCFCE0101961F
:100BF000E8DB8823B9F289819A8164E670E021DC20
:100C000080916500833018F41092C100CBCF84E648
:100C100090E063E0AE014D5F5F4F9E012B5F3F4F61
:100C20008E01095F1F4F4FDC8D819E8122E0823C47
:100C3000920720F481E08093C200E6CF23E0893060
:100C4000920718F4F092C200DFCF8A54934020F448
:100C500083E08093C200D8CF84E08093C200D4CFD9
:100C60000F931F93DF93CF9300D000D000D0CDB768
:100C7000DEB71A82198280916500833068F084E6BD
:100C800090E063E0AE014D5F5F4F9E012B5F3F4FF1
:100C90008E010F5F1F4F17DC69817A8180E090E041
:100CA0002AE930E040E050E057D824E630E040E068
:100CB00050E0ADD8C90126960FB6F894DEBF0FBE3E
:100CC000CDBFCF91DF911F910F9108951092C10078
:100CD0001092C20060E070E080E090E043EC50E0F1
:100CE0008CDA109264001092650080E060E040E0D1
:100CF00023DB089590E080916A00853008F091E050
:100D0000892F08951092690010926A0008958091C9
:100D1000D3008130C9F0813030F484ED90E082DA84
:100D20008823D1F408958230E9F78AED90E049DB19
:100D30008823C1F38091DA009091DB0069E670E0CE
:100D400080DB1092D300089583E01ADB882351F3EF
:100D500082E08093D30008956FE070E080E090E03F
:100D600044ED50E04ADA81E08093D30008950F9378
:100D70001F93DF93CF9300D000D000D0CDB7DEB764
:100D80001A82198280916A00853068F089E690E0C5
:100D900065E0AE014D5F5F4F9E012B5F3F4F8E01BF
:100DA0000F5F1F4F90DB69817A8180E090E024E63D
:100DB00030E040E050E0D0D7DC01CB012AE0B5952F
:100DC000A795979587952A95D1F726960FB6F8940B
:100DD000DEBF0FBECDBFCF91DF911F910F91089560
:100DE00089E690E054DBA0E0B0E0BC01CD0124E650
:100DF00030E040E050E0B0D7DC01CB013AE0B595FF
:100E0000A795979587953A95D1F708951092D300B5
:100E100060E070E080E090E044ED50E0EED91092A8
:100E2000690010926A0083E060E040E085DA08958E
:100E30008091DC0008958EED90E0F4D9882309F4C8
:100E4000089562E070E080E090E04EED50E0D5D98A
:100E50008091DD00880F8093DD00CC9B03C0816012
:100E60008093DD00882329F08F3F51F71092DC003A
:100E7000089581E08093DC000895D498DC9A60E0C6
:100E800070E080E090E04EED50E0B7D98FEF8093B6
:100E9000DD001092DC0008959093E6008093E50059
:100EA00008958091E40008958BEE90E0BBD98823EB
:100EB000A9F48091E7009091E80001969093E800F2
:100EC0008093E700CF9909C08091E9009091EA00F2
:100ED00001969093EA008093E900089564E170E040
:100EE00080E090E04BEE50E088D98091E70090914F
:100EF000E800089758F01092E4008091E900909182
:100F0000EA00029718F081E08093E4001092E80074
:100F10001092E7001092EA001092E90008951092F2
:100F2000E4001092E8001092E7001092EA0010929C
:100F3000E9001092E6001092E500D798DF9A64E18C
:100F400070E080E090E04BEE50E057D9089580913A
:100F5000F100813011F080E0089586B390E096951D
:100F6000879596958795817008958091F1008823E3
:100F700041F482EF90E056D9882319F081E0809304
:100F8000F1000895BA9868E779E680E090E042EFD2
:100F900050E033D91092F100089590E080916F00F5
:100FA0008A3008F091E0892F0895DF93CF9300D025
:100FB000CDB7DEB780910C018130C9F0813038F0B7
:100FC000823009F10F900F90CF91DF9108958DE05D
:100FD00091E028D98823B1F36EE170E080E090E0E1
:100FE0004DE051E00AD981E080930C01EBCF88E01D
:100FF000C7D9882339F382E080930C010F900F90BA
:10100000CF91DF910895CE010196DBD98823D1F2EB
:1010100089819A816EE670E014DA10920C01D2CFC9
:101020000F931F93DF93CF9300D000D000D0CDB7A4
:10103000DEB780916F008A3070F420E030E0C901A3
:1010400026960FB6F894DEBF0FBECDBFCF91DF91CD
:101050001F910F9108951A8219828EE690E06AE03E
:10106000AE014D5F5F4F9E012B5F3F4F8E010F5FC3
:101070001F4F29DA89E090E03CD629813A81280F78
:10108000391FDDCF10920C016CE271E080E090E03E
:101090004DE051E0B2D810926E0010926F0088E0DF
:1010A00060E840E049D908951092130110921401AC
:1010B0001092150110921601089580911301089560
:1010C000882341F487E191E0A7D880E044D11092D1
:1010D00013010895682F70E080E090E02CE231E089
:1010E00040E050E039D647E151E087D880E033D185
:1010F00010921301089587E090E0FBD5A0E0B0E0E6
:10110000BC01CD0120E536E440E050E025D647E1C2
:1011100051E073D881E01FD181E0809313010895DD
:1011200085E090E0E6D5A0E0B0E0BC01CD0120E58F
:1011300036E440E050E010D647E151E05ED881E06F
:101140000AD183E08093130108950F931F9370DEFB
:10115000982F882329F080911401882309F480C0F6
:10116000992309F452C000E0909314019ADE982F5D
:10117000882329F080911501882309F46FC09923F1
:1011800019F110E09093150180911301823039F12B
:10119000833008F441C0843009F485C0843008F0FD
:1011A00066C0013009F47CC0113009F4A1C0CFDE63
:1011B000882309F08DC087E191E034D8882309F4B1
:1011C00053C080E07DDF50C0809115018823C9F2B3
:1011D00012E090931501809113018230C9F68DE1E0
:1011E00091E020D8882309F43FC0FADD2091160150
:1011F00090E0422F50E026952695421B5109841716
:10120000950754F1109213012FC080911401882387
:1012100009F4A9CF02E0A8CF882321F5013009F411
:1012200089C0123009F478C087E191E0FBD78823A8
:10123000D9F037DE882319F010DC8035A9F45ADDA7
:10124000882391F094DD182F84E090E04BD581172E
:1012500058F07DDE882341F063DF06C011E092CFB5
:1012600001E082CF8130C9F01F910F910895853040
:10127000D9F78DE191E0D6D78823B1F3B1DD209184
:10128000160190E0422F50E026952695420F511D01
:10129000481759070CF495CFDFCF013009F08BCFF9
:1012A00084E10EDFE1CF8DE191E0BCD78823E1F24C
:1012B00097DD2091160190E0422F50E0269526956B
:1012C000421B5109841795070CF07BCF29DFCCCF47
:1012D00085E090E00ED5A0E0B0E0BC01CD0120E5B6
:1012E00036E440E050E038D547E151E086D7BCCF46
:1012F0003EDD8093160106DD65E270E080E090E05F
:101300004DE151E07AD72AD08230B0F080E023D08E
:1013100084E080931301A8CF2ADD80931601F2DCCC
:1013200065E270E080E090E04DE151E066D7109317
:1013300013019ACFE0DE98CF80E00DD085E0809356
:10134000130192CF1092240110922301D19AD29AC4
:10135000D998DA9808958093240108958091230103
:10136000089580912401882311F1909123019923FC
:1013700029F080912501981709F461C09093250107
:1013800010922701109226016FE070E080E090E05B
:1013900048E251E032D780912301823009F43FC006
:1013A000833050F0833011F18430A1F00895D99842
:1013B000DA98109223010895882309F18130B1F75A
:1013C00070DD882309F463C0DA9AD99884E08093A9
:1013D0002301089566DD882309F45FC0809126010A
:1013E00090912701059710F3D99808955ADD882325
:1013F00009F441C0DA9A84E080932301089551DD15
:10140000882311F7B5DB882389F2B2DB823008F438
:101410004CC0D99ADA9883E0809323010895809193
:10142000260190912701883C910508F4BFCFB3D1E4
:10143000882309F4BBCF81E080932301089588E2DB
:1014400091E0F0D6882309F4A6CF6FE070E080E049
:1014500090E048E251E0D1D6809126019091270199
:101460002FEF8F3F920709F496CF019690932701B3
:101470008093260190CF7CDB8230E8F080912601BA
:1014800090912701059708F491CFDA98089570DBC1
:10149000833008F0BECFD998F8CF6ADB823028F0CD
:1014A000D99A83E0809323010895D998DA9881E04E
:1014B00080932301089582E08093230108950F9380
:1014C0001F93DF93CF93CDB7DEB7A3970FB6F894F2
:1014D000DEBF0FBECDBFFE0135968FE1DF011D924D
:1014E0008A95E9F78EE189831A82FC83EB8386E291
:1014F00091E08E010F5F1F4FB801CAD22FDF8230FB
:1015000009F475C0833008F459C0833009F46DC004
:10151000843009F45CC080E2B80196D283E291E0A5
:10152000B801B6D29DDB62E0A80173D380E291E0FE
:10153000B801AED2B6DC90E060E0A8016AD38DE1DC
:1015400091E0B801A5D289DAB8017ED2B6DD823049
:1015500009F451C08330E8F5882309F042C080E3E4
:10156000B80172D28AE191E0B80192D239DC90E000
:1015700060E0A8014ED387E191E0B80189D2E7DCB1
:1015800090E060E0A80145D384E191E0B80180D209
:1015900047DD60E0A8013DD381E191E0B80178D258
:1015A0008B819C8117D1A3960FB6F894DEBF0FBE36
:1015B000CDBFCF91DF911F910F910895882329F01E
:1015C000813009F0A8CF85E5A7CF89E4A5CF81E4D4
:1015D000A3CF833071F0863010F080E2C1CF8EE669
:1015E000BFCF8130D1F78DE4BBCF82E495CF87E5C3
:1015F00093CF81E4B5CF86E6B3CF1F938EE291E01F
:1016000011D68823E9F420913401222331F1822F6D
:1016100066E0BBD3182F80913601181738F4822F5B
:10162000B4D3992319F4C09A1F9108953ADC882302
:1016300019F4C0981F9108951A30D9F7C09AF4CFC1
:101640006FE070E080E090E04EE251E0D6D580910E
:1016500034018F3940F0109234018ADA80933601D8
:1016600020913401D4CF8F5F80933401CCCFB89ACE
:101670006FE070E080E090E04EE251E0BED5109265
:10168000340110923501109236017ED00895FC018C
:101690008FB7F894118210821382128215821482FD
:1016A0008FBF0895482FDB015FB7F89414962D91F2
:1016B0003C91159716968D919C911797281739078D
:1016C00070F51896ED91FC91199712968D919C9159
:1016D0001397E80FF91F408312962D913C911397B1
:1016E00016968D919C91179701972817390780F0CE
:1016F00013961C921E92129714968D919C91159799
:10170000019615969C938E93149781E05FBF089580
:101710002F5F3F4F13963C932E931297EDCF80E0AF
:101720005FBF0895DC016FB7F89414964D915C91FA
:1017300015974115510521F12D913C91119718965E
:10174000ED91FC911997E20FF31FE08116968D91B0
:101750009C91179701972817390760F011961C92F2
:101760001E924150504015965C934E9314976FBF54
:101770008E2F08952F5F3F4F11963C932E93F1CFFC
:10178000E0E06FBF8E2F089581E080937E01089581
:1017900010927E01089580917D01882319F020E048
:1017A000822F08958FB7F8948FBF20E08091770043
:1017B00090917800892BA1F721E0822F0895982F2E
:1017C00080917E01882309F40895892F63E770E0F2
:1017D00069DF0895CF93DF93FC0180917E01882318
:1017E00059F08081882341F0EF0163E770E05ADF10
:1017F000898121968823C9F7DF91CF910895CF93EE
:10180000DF93EC0180917E01882311F480E017C002
:10181000CE0148D32FB7F8942FBF20917900309193
:101820007A004091770050917800241B350B2817DF
:10183000390760F3FE018491882321F481E0DF9170
:10184000CF910895219663E770E02CDFFE0184912B
:101850002196882399F3F7CFD69A10927E011092A1
:10186000800110927F0110927D0189E39CE025D5D3
:10187000089580917D01813091F0813050F48FB7CF
:10188000F8948FBF8091770090917800892BC9F4EC
:1018900008958230E9F7DE9A10927D0108959091C3
:1018A000810190FD0CC0DE98809182018830A9F002
:1018B0008F5F809382019695909381010895DE9ABF
:1018C000F3CFDE9883E790E02DDF8093810181E004
:1018D0008093820180937D01089582E080937D0151
:1018E000089580919301882331F410929401959A80
:1018F00081E080939301089580919301882321F0E2
:10190000619895981092930108958DE790E008955D
:101910001F920F920FB60F9211248F939F93CD9920
:101920000CC0599A619A1DBC1CBC8AE190E09BBD19
:101930008ABD959881E0809394019F918F910F903B
:101940000FBE0F901F9018951F920F920FB60F9217
:1019500011242F933F934F935F936F937F938F93B4
:101960009F93AF93BF93EF93FF9380919401823045
:1019700051F1833009F1813089F0FF91EF91BF91EE
:10198000AF919F918F917F916F915F914F913F9117
:101990002F910F900FBE0F901F901895CD9925C0D5
:1019A000109295018093960184E390E09BBD8ABDDF
:1019B00082E080939401E1CFCD991AC06198109292
:1019C0009401959ADACFCD9908C0909196019038FC
:1019D000A9F0990F90939601D0CF809195019091A5
:1019E0009601892B80939501F2CF6198959AC5CF86
:1019F000809195016DE770E055DEE0CF83E0809344
:101A00009401BBCFD598DD9A8FB58C7F8FBD8EB5F5
:101A1000877E88608EBD8EB5887F83608EBD84E3AF
:101A200090E09BBD8ABD1DBC1CBC599A8BB78061E0
:101A30008BBF80919301882331F410929401959A81
:101A400081E0809393010895282FDB0111969C91EA
:101A500011978C91981770F41296ED91FC91139751
:101A6000E90FF11D2083118211968C9111978F5FE0
:101A700011968C930895982FFB018181981738F463
:101A800091830280F381E02DE90FF11D108208950A
:101A9000EF92FF921F93CF93DF937C01EB0102D271
:101AA00029811881121B811708F4182F8A819B81C4
:101AB000820F911DB701412F50E0FDD18981810F27
:101AC0008983EA81FB81E80FF11D1082DF91CF91BC
:101AD0001F91FF90EF9008951F93CF93DF93382FBE
:101AE000492FEB01E82FF92FDF010D900020E9F7D6
:101AF0001197AE1BBF0B29811881121BA11708F487
:101B00001A2F8A819B81820F911D632F742F412F81
:101B100050E0E4D18981810F8983EA81FB81E80F5C
:101B2000F11D1082DF91CF911F9108951F93CF93E4
:101B3000DF93EC0188E291E0B5D129811881121B75
:101B4000811708F4182F8A819B81820F911D68E20A
:101B500071E0412F50E0AFD18981810F8983EA8103
:101B6000FB81E80FF11D1082DF91CF911F91089545
:101B70001F93CF93DF93FC01EB0162817381FB0123
:101B8000DF010D900020E9F71197AE1BBF0B2981F3
:101B90001881121BA11708F41A2F8A819B81820FCA
:101BA000911D412F50E09AD18981810F8983EA816B
:101BB000FB81E80FF11D1082DF91CF911F910895F5
:101BC0000F931F93CF93DF93EC018B01DB011196F1
:101BD0001C9211971296ED91FC91139710828881B7
:101BE000882329F410C021968881882361F08232ED
:101BF000D1F702C0B80128DF21968881882319F027
:101C00008232C1F72196CE01DF91CF911F910F91C2
:101C10000895BF92CF92DF92EF92FF920F931F939E
:101C2000DF93CF93CDB7DEB760970FB6F894DEBFE2
:101C30000FBECDBF8C01B62E7A0197FD43C09C012B
:101C40008B2D90E06E010894C11CD11CF601E80FA9
:101C5000F91F1082009799F0FC013197EC0DFD1DE2
:101C6000C9016AE070E09DD0805D8083C9016AE0AF
:101C700070E097D09B013197EC17FD0789F78E0133
:101C8000075F1F4FC901B8014AE050E05DD1C801AC
:101C9000B70122DFBB2031F08EE2B701D5DEC601ED
:101CA000B7011ADF60960FB6F894DEBF0FBECDBF46
:101CB000CF91DF911F910F91FF90EF90DF90CF9028
:101CC000BF9008958DE2BA01BFDE22273327201B83
:101CD000310BB6CFE199FECF9FBB8EBB6DBBE29AB5
:101CE000E19A0895E199FECF9FBB8EBBE09A8DB338
:101CF0000895E199FECF9FBB8EBBE09A2DB3E19989
:101D0000FECF01969FBB8EBBE09A4DB330E0942F7F
:101D100080E0282B392BC9010895E199FECF9FBBA4
:101D20008EBB6DBBE29AE19AE199FECF01969FBB13
:101D30008EBB7DBBE29AE19A08958AEA809397016F
:101D40000895809197018A3A29F08AEA8093970151
:101D500080E0089581E00895FF27EE27BB27AA279A
:101D600060FF04C0A20FB31FE41FF51F220F331F33
:101D7000441F551F969587957795679589F7009726
:101D8000760771F7CF01BD010895991B79E004C072
:101D9000991F961708F0961B881F7A95C9F78095AA
:101DA0000895AA1BBB1B51E107C0AA1FBB1FA617A2
:101DB000B70710F0A61BB70B881F991F5A95A9F7F4
:101DC00080959095BC01CD010895A1E21A2EAA1B21
:101DD000BB1BFD010DC0AA1FBB1FEE1FFF1FA217DB
:101DE000B307E407F50720F0A21BB30BE40BF50BD8
:101DF000661F771F881F991F1A9469F76095709561
:101E0000809590959B01AC01BD01CF01089597FB92
:101E1000092E05260ED057FD04D0D7DF0AD0001CAE
:101E200038F450954095309521953F4F4F4F5F4F77
:101E30000895F6F790958095709561957F4F8F4F37
:101E40009F4F0895FC0188279927E894219120321B
:101E5000E9F3293010F02E30C8F32B3239F02D324F
:101E600031F4689403C08FD0820F911D21912053CB
:101E70002A30C8F31EF4909581959F4F0895FB0179
:101E8000DC018D9181341CF08B350CF4805E659102
:101E900061341CF06B350CF4605E861B611189F3B4
:101EA000990B0895FC0105900020E9F78095909525
:101EB0008E0F9F1F0895FB01DC014150504048F0F8
:101EC00005900D920020C9F701C01D92415050406D
:101ED000E0F7089548E951E010D00895FB01DC01D6
:101EE0004150504048F001900D920020C9F701C0C8
:101EF0001D9241505040E0F70895FA01A191B08140
:101F0000009719F41097E1F0CD01DC01CD010D909F
:101F1000002011F4C00113C0FB012191222319F00C
:101F20002015D9F7F3CFFB012191201519F41E924A
:101F3000119606C02223C1F70D900020A1F7D00111
:101F4000FA01A193B0830895FB019F01E894423008
:101F5000BCF04532ACF44A3029F497FB1EF490955E
:101F600081959F4F642F77271CDF805D8A330CF0AB
:101F7000895D8193CB010097A9F716F45DE2519337
:101F80001082C9010AC0BC01880F991F880F991FD0
:101F9000860F971F880F991F0895DC01FC01672F9A
:101FA00071917723E1F7329704C07C916D93708330
:0E1FB0006291AE17BF07C8F30895F894FFCFF3
:101FBE00200A0D00000003BB00000005C900000050
:101FCE000AF8000000000000004600370100000083
:081FDE00000000100083010067
:00000001FF
